{
  "_format": "hh-sol-artifact-1",
  "contractName": "NftMarketPlace",
  "sourceName": "contracts/NftMarketPlace.sol",
  "abi": [
    {
      "inputs": [
        {
          "internalType": "address",
          "name": "forwarder",
          "type": "address"
        }
      ],
      "stateMutability": "nonpayable",
      "type": "constructor"
    },
    {
      "inputs": [
        {
          "internalType": "address",
          "name": "caller",
          "type": "address"
        },
        {
          "internalType": "uint256",
          "name": "tokenId",
          "type": "uint256"
        }
      ],
      "name": "NftMarketPlace__CallerIsOwnerOfToken",
      "type": "error"
    },
    {
      "inputs": [
        {
          "internalType": "uint256",
          "name": "value",
          "type": "uint256"
        }
      ],
      "name": "NftMarketPlace__DidNotPayLISTINGPRICE",
      "type": "error"
    },
    {
      "inputs": [
        {
          "internalType": "address",
          "name": "requester",
          "type": "address"
        }
      ],
      "name": "NftMarketPlace__NotOwnerOfContract",
      "type": "error"
    },
    {
      "inputs": [
        {
          "internalType": "address",
          "name": "sender",
          "type": "address"
        },
        {
          "internalType": "uint256",
          "name": "tokenId",
          "type": "uint256"
        }
      ],
      "name": "NftMarketPlace__NotOwnerOfToken",
      "type": "error"
    },
    {
      "inputs": [
        {
          "internalType": "uint256",
          "name": "tokenId",
          "type": "uint256"
        }
      ],
      "name": "NftMarketPlace__TokenAlreadyOnSale",
      "type": "error"
    },
    {
      "inputs": [
        {
          "internalType": "uint256",
          "name": "tokenId",
          "type": "uint256"
        }
      ],
      "name": "NftMarketPlace__TokenIdUnderOne",
      "type": "error"
    },
    {
      "inputs": [
        {
          "internalType": "uint256",
          "name": "tokenId",
          "type": "uint256"
        }
      ],
      "name": "NftMarketPlace__TokenNotOnSale",
      "type": "error"
    },
    {
      "inputs": [
        {
          "internalType": "uint256",
          "name": "valueSend",
          "type": "uint256"
        }
      ],
      "name": "NftMarketPlace__UnequalToSellPrice",
      "type": "error"
    },
    {
      "inputs": [
        {
          "internalType": "address",
          "name": "sender",
          "type": "address"
        },
        {
          "internalType": "uint256",
          "name": "valueSend",
          "type": "uint256"
        }
      ],
      "name": "NftMarketPlace__ValueUnderOrEqualToZero",
      "type": "error"
    },
    {
      "anonymous": false,
      "inputs": [
        {
          "indexed": true,
          "internalType": "address",
          "name": "sender",
          "type": "address"
        },
        {
          "indexed": false,
          "internalType": "uint256",
          "name": "value",
          "type": "uint256"
        },
        {
          "indexed": false,
          "internalType": "uint256",
          "name": "timestamp",
          "type": "uint256"
        }
      ],
      "name": "balanceDirectlyToContract",
      "type": "event"
    },
    {
      "anonymous": false,
      "inputs": [
        {
          "indexed": true,
          "internalType": "address",
          "name": "nftContractAddress",
          "type": "address"
        },
        {
          "indexed": false,
          "internalType": "uint256",
          "name": "tokenId",
          "type": "uint256"
        },
        {
          "indexed": false,
          "internalType": "uint256",
          "name": "price",
          "type": "uint256"
        },
        {
          "indexed": false,
          "internalType": "bool",
          "name": "onSale",
          "type": "bool"
        },
        {
          "indexed": false,
          "internalType": "address",
          "name": "owner",
          "type": "address"
        },
        {
          "indexed": true,
          "internalType": "address",
          "name": "seller",
          "type": "address"
        },
        {
          "indexed": false,
          "internalType": "address",
          "name": "minter",
          "type": "address"
        }
      ],
      "name": "marketItemBought",
      "type": "event"
    },
    {
      "anonymous": false,
      "inputs": [
        {
          "indexed": true,
          "internalType": "address",
          "name": "nftContractAddress",
          "type": "address"
        },
        {
          "indexed": true,
          "internalType": "uint256",
          "name": "tokenId",
          "type": "uint256"
        },
        {
          "indexed": false,
          "internalType": "uint256",
          "name": "price",
          "type": "uint256"
        },
        {
          "indexed": false,
          "internalType": "bool",
          "name": "onSale",
          "type": "bool"
        },
        {
          "indexed": true,
          "internalType": "address",
          "name": "owner",
          "type": "address"
        },
        {
          "indexed": false,
          "internalType": "address",
          "name": "seller",
          "type": "address"
        },
        {
          "indexed": false,
          "internalType": "address",
          "name": "minter",
          "type": "address"
        }
      ],
      "name": "marketItemCreated",
      "type": "event"
    },
    {
      "anonymous": false,
      "inputs": [
        {
          "indexed": true,
          "internalType": "address",
          "name": "nftContractAddress",
          "type": "address"
        },
        {
          "indexed": false,
          "internalType": "uint256",
          "name": "tokenId",
          "type": "uint256"
        },
        {
          "indexed": false,
          "internalType": "uint256",
          "name": "price",
          "type": "uint256"
        },
        {
          "indexed": false,
          "internalType": "bool",
          "name": "onSale",
          "type": "bool"
        },
        {
          "indexed": false,
          "internalType": "address",
          "name": "owner",
          "type": "address"
        },
        {
          "indexed": true,
          "internalType": "address",
          "name": "seller",
          "type": "address"
        },
        {
          "indexed": false,
          "internalType": "address",
          "name": "minter",
          "type": "address"
        }
      ],
      "name": "marketItemOnSale",
      "type": "event"
    },
    {
      "inputs": [],
      "name": "LISTINGPRICE",
      "outputs": [
        {
          "internalType": "uint256",
          "name": "",
          "type": "uint256"
        }
      ],
      "stateMutability": "view",
      "type": "function"
    },
    {
      "inputs": [
        {
          "internalType": "uint256",
          "name": "_tokenId",
          "type": "uint256"
        },
        {
          "internalType": "address",
          "name": "_nftContractAddress",
          "type": "address"
        }
      ],
      "name": "buyMarketToken",
      "outputs": [],
      "stateMutability": "payable",
      "type": "function"
    },
    {
      "inputs": [],
      "name": "fetchAllMyTokens",
      "outputs": [
        {
          "components": [
            {
              "internalType": "address",
              "name": "nftContractAddress",
              "type": "address"
            },
            {
              "internalType": "uint256",
              "name": "tokenId",
              "type": "uint256"
            },
            {
              "internalType": "uint256",
              "name": "price",
              "type": "uint256"
            },
            {
              "internalType": "bool",
              "name": "onSale",
              "type": "bool"
            },
            {
              "internalType": "address payable",
              "name": "owner",
              "type": "address"
            },
            {
              "internalType": "address payable",
              "name": "seller",
              "type": "address"
            },
            {
              "internalType": "address",
              "name": "minter",
              "type": "address"
            }
          ],
          "internalType": "struct NftMarketPlace.MarketToken[]",
          "name": "",
          "type": "tuple[]"
        }
      ],
      "stateMutability": "view",
      "type": "function"
    },
    {
      "inputs": [],
      "name": "fetchAllTokens",
      "outputs": [
        {
          "components": [
            {
              "internalType": "address",
              "name": "nftContractAddress",
              "type": "address"
            },
            {
              "internalType": "uint256",
              "name": "tokenId",
              "type": "uint256"
            },
            {
              "internalType": "uint256",
              "name": "price",
              "type": "uint256"
            },
            {
              "internalType": "bool",
              "name": "onSale",
              "type": "bool"
            },
            {
              "internalType": "address payable",
              "name": "owner",
              "type": "address"
            },
            {
              "internalType": "address payable",
              "name": "seller",
              "type": "address"
            },
            {
              "internalType": "address",
              "name": "minter",
              "type": "address"
            }
          ],
          "internalType": "struct NftMarketPlace.MarketToken[]",
          "name": "",
          "type": "tuple[]"
        }
      ],
      "stateMutability": "view",
      "type": "function"
    },
    {
      "inputs": [],
      "name": "fetchAllTokensOnSale",
      "outputs": [
        {
          "components": [
            {
              "internalType": "address",
              "name": "nftContractAddress",
              "type": "address"
            },
            {
              "internalType": "uint256",
              "name": "tokenId",
              "type": "uint256"
            },
            {
              "internalType": "uint256",
              "name": "price",
              "type": "uint256"
            },
            {
              "internalType": "bool",
              "name": "onSale",
              "type": "bool"
            },
            {
              "internalType": "address payable",
              "name": "owner",
              "type": "address"
            },
            {
              "internalType": "address payable",
              "name": "seller",
              "type": "address"
            },
            {
              "internalType": "address",
              "name": "minter",
              "type": "address"
            }
          ],
          "internalType": "struct NftMarketPlace.MarketToken[]",
          "name": "",
          "type": "tuple[]"
        }
      ],
      "stateMutability": "view",
      "type": "function"
    },
    {
      "inputs": [],
      "name": "fetchTokensMintedByCaller",
      "outputs": [
        {
          "components": [
            {
              "internalType": "address",
              "name": "nftContractAddress",
              "type": "address"
            },
            {
              "internalType": "uint256",
              "name": "tokenId",
              "type": "uint256"
            },
            {
              "internalType": "uint256",
              "name": "price",
              "type": "uint256"
            },
            {
              "internalType": "bool",
              "name": "onSale",
              "type": "bool"
            },
            {
              "internalType": "address payable",
              "name": "owner",
              "type": "address"
            },
            {
              "internalType": "address payable",
              "name": "seller",
              "type": "address"
            },
            {
              "internalType": "address",
              "name": "minter",
              "type": "address"
            }
          ],
          "internalType": "struct NftMarketPlace.MarketToken[]",
          "name": "",
          "type": "tuple[]"
        }
      ],
      "stateMutability": "view",
      "type": "function"
    },
    {
      "inputs": [],
      "name": "getListingPrice",
      "outputs": [
        {
          "internalType": "uint256",
          "name": "",
          "type": "uint256"
        }
      ],
      "stateMutability": "pure",
      "type": "function"
    },
    {
      "inputs": [],
      "name": "getTrustedForwarder",
      "outputs": [
        {
          "internalType": "address",
          "name": "forwarder",
          "type": "address"
        }
      ],
      "stateMutability": "view",
      "type": "function"
    },
    {
      "inputs": [
        {
          "internalType": "uint256",
          "name": "",
          "type": "uint256"
        }
      ],
      "name": "idToMarketToken",
      "outputs": [
        {
          "internalType": "address",
          "name": "nftContractAddress",
          "type": "address"
        },
        {
          "internalType": "uint256",
          "name": "tokenId",
          "type": "uint256"
        },
        {
          "internalType": "uint256",
          "name": "price",
          "type": "uint256"
        },
        {
          "internalType": "bool",
          "name": "onSale",
          "type": "bool"
        },
        {
          "internalType": "address payable",
          "name": "owner",
          "type": "address"
        },
        {
          "internalType": "address payable",
          "name": "seller",
          "type": "address"
        },
        {
          "internalType": "address",
          "name": "minter",
          "type": "address"
        }
      ],
      "stateMutability": "view",
      "type": "function"
    },
    {
      "inputs": [
        {
          "internalType": "address",
          "name": "forwarder",
          "type": "address"
        }
      ],
      "name": "isTrustedForwarder",
      "outputs": [
        {
          "internalType": "bool",
          "name": "",
          "type": "bool"
        }
      ],
      "stateMutability": "view",
      "type": "function"
    },
    {
      "inputs": [
        {
          "internalType": "address",
          "name": "_nftContractAddress",
          "type": "address"
        }
      ],
      "name": "mintMarketToken",
      "outputs": [],
      "stateMutability": "payable",
      "type": "function"
    },
    {
      "inputs": [
        {
          "internalType": "uint256",
          "name": "_tokenId",
          "type": "uint256"
        },
        {
          "internalType": "uint256",
          "name": "sellPrice",
          "type": "uint256"
        },
        {
          "internalType": "address",
          "name": "_nftContractAddress",
          "type": "address"
        }
      ],
      "name": "saleMarketToken",
      "outputs": [],
      "stateMutability": "nonpayable",
      "type": "function"
    },
    {
      "inputs": [],
      "name": "versionRecipient",
      "outputs": [
        {
          "internalType": "string",
          "name": "",
          "type": "string"
        }
      ],
      "stateMutability": "view",
      "type": "function"
    },
    {
      "inputs": [],
      "name": "withdrawContractsProfits",
      "outputs": [],
      "stateMutability": "nonpayable",
      "type": "function"
    }
  ],
  "bytecode": "0x60e0604052600660a08190526576302e302e3160d01b60c0908152620000299160029190620000ed565b503480156200003757600080fd5b50604051620015c7380380620015c78339810160408190526200005a9162000193565b6001600055620000696200009b565b60601b6001600160601b031916608052600180546001600160a01b0319166001600160a01b0383161790555062000202565b6000620000b2620000b760201b620010a01760201c565b905090565b600060143610801590620000d557506001546001600160a01b031633145b15620000e8575060131936013560601c90565b503390565b828054620000fb90620001c5565b90600052602060002090601f0160209004810192826200011f57600085556200016a565b82601f106200013a57805160ff19168380011785556200016a565b828001600101855582156200016a579182015b828111156200016a5782518255916020019190600101906200014d565b50620001789291506200017c565b5090565b5b808211156200017857600081556001016200017d565b600060208284031215620001a657600080fd5b81516001600160a01b0381168114620001be57600080fd5b9392505050565b600181811c90821680620001da57607f821691505b60208210811415620001fc57634e487b7160e01b600052602260045260246000fd5b50919050565b60805160601c6113a662000221600039600061093f01526113a66000f3fe6080604052600436106100dd5760003560e01c80637929d1b51161007f578063a80df8c011610059578063a80df8c0146102a5578063b8c3617c146102c0578063ce1b815f146102d5578063f9d138c3146102fd57600080fd5b80637929d1b5146101cb57806390effc831461027b5780639e65442c1461029057600080fd5b806338433c05116100bb57806338433c0514610142578063486ff0cd14610155578063572b6c05146101775780636a31d992146101b657600080fd5b806312e85585146100e25780631b9e19c61461010b5780632528b67614610120575b600080fd5b3480156100ee57600080fd5b5066071afd498d00005b6040519081526020015b60405180910390f35b61011e61011936600461113b565b61031d565b005b34801561012c57600080fd5b50610135610500565b60405161010291906111d7565b61011e610150366004611176565b61062d565b34801561016157600080fd5b5061016a6108af565b604051610102919061126b565b34801561018357600080fd5b506101a661019236600461113b565b6001546001600160a01b0391821691161490565b6040519015158152602001610102565b3480156101c257600080fd5b5061011e61093d565b3480156101d757600080fd5b506102366101e636600461115d565b60046020819052600091825260409091208054600182015460028301546003840154948401546005909401546001600160a01b03938416959294919360ff84169361010090048116928116911687565b604080516001600160a01b0398891681526020810197909752860194909452911515606085015284166080840152831660a083015290911660c082015260e001610102565b34801561028757600080fd5b506101356109ef565b34801561029c57600080fd5b50610135610b89565b3480156102b157600080fd5b506100f866071afd498d000081565b3480156102cc57600080fd5b50610135610d3f565b3480156102e157600080fd5b506001546040516001600160a01b039091168152602001610102565b34801561030957600080fd5b5061011e6103183660046111a2565b610eeb565b66071afd498d0000341461034b57604051630c3cfc1f60e01b81523460048201526024015b60405180910390fd5b610359600380546001019055565b600061036460035490565b90506040518060e00160405280836001600160a01b031681526020018281526020016000815260200160001515815260200161039e6110d4565b6001600160a01b03168152600060208201526040016103bb6110d4565b6001600160a01b039081169091526000838152600460208181526040808420865181549087166001600160a01b031991821617825592870151600182015590860151600282015560608601516003820180546080890151881661010002610100600160a81b0319931515939093166001600160a81b03199091161791909117905560a086015192810180549386169383169390931790925560c090940151600591820180549190941694169390931790915581543492919061047e9084906112c0565b9091555061048c90506110d4565b6001600160a01b031681836001600160a01b03167f9dcc3573116b077cd633ea2be8f76d15617a8ab58fb28ba75f89e5d778db07ca60008060006104ce6110d4565b6040805194855292151560208501526001600160a01b0391821684840152166060830152519081900360800190a45050565b6060600061050d60035490565b905060008167ffffffffffffffff81111561052a5761052a61135a565b60405190808252806020026020018201604052801561056357816020015b6105506110e3565b8152602001906001900390816105485790505b509050600060015b83811161062457600081815260046020818152604092839020835160e08101855281546001600160a01b039081168252600183015493820193909352600282015494810194909452600381015460ff81161515606086015261010090048216608085015291820154811660a08401526005909101541660c082015283518490849081106105fa576105fa611344565b60209081029190910101526106106001836112c0565b91508061061c81611313565b91505061056b565b50909392505050565b600260005414156106805760405162461bcd60e51b815260206004820152601f60248201527f5265656e7472616e637947756172643a207265656e7472616e742063616c6c006044820152606401610342565b6002600055816106a65760405163681f561560e01b815260048101839052602401610342565b60008281526004602052604090206003015460ff1615156001146106e0576040516361e4bceb60e01b815260048101839052602401610342565b6000828152600460205260409020600201543414610713576040516308be23c360e31b8152346004820152602401610342565b60008281526004602052604090206003015461010090046001600160a01b031661073b6110d4565b6001600160a01b0316141561077e576107526110d4565b60405163bb4cd47d60e01b81526001600160a01b03909116600482015260248101839052604401610342565b806001600160a01b03166323b872dd306107966110d4565b6040516001600160e01b031960e085901b1681526001600160a01b0392831660048201529116602482015260448101859052606401600060405180830381600087803b1580156107e557600080fd5b505af11580156107f9573d6000803e3d6000fd5b50505060008381526004602081905260408083209091015490516001600160a01b0390911692503480156108fc0292909190818181858888f19350505050158015610848573d6000803e3d6000fd5b5060008281526004602052604081206002810191909155600301805460ff191690556108726110d4565b600092835260046020526040832060030180546001600160a01b039290921661010002610100600160a81b03199092169190911790555060019055565b600280546108bc906112d8565b80601f01602080910402602001604051908101604052809291908181526020018280546108e8906112d8565b80156109355780601f1061090a57610100808354040283529160200191610935565b820191906000526020600020905b81548152906001019060200180831161091857829003601f168201915b505050505081565b7f00000000000000000000000000000000000000000000000000000000000000006001600160a01b031661096f6110d4565b6001600160a01b0316146109aa576109856110d4565b604051632ecc936560e21b81526001600160a01b039091166004820152602401610342565b6109b26110d4565b6001600160a01b03166108fc6005549081150290604051600060405180830381858888f193505050501580156109ec573d6000803e3d6000fd5b50565b606060006109fc60035490565b9050600060015b828111610a495760008181526004602052604090206003015460ff16151560011415610a3757610a346001836112c0565b91505b80610a4181611313565b915050610a03565b5060008167ffffffffffffffff811115610a6557610a6561135a565b604051908082528060200260200182016040528015610a9e57816020015b610a8b6110e3565b815260200190600190039081610a835790505b509050600060015b848111610b7f5760008181526004602052604090206003015460ff16151560011415610b6d57600081815260046020818152604092839020835160e08101855281546001600160a01b039081168252600183015493820193909352600282015494810194909452600381015460ff81161515606086015261010090048216608085015291820154811660a08401526005909101541660c08201528351849084908110610b5457610b54611344565b6020908102919091010152610b6a6001836112c0565b91505b80610b7781611313565b915050610aa6565b5090949350505050565b60606000610b9660035490565b9050600060015b828111610bf657610bac6110d4565b60008281526004602052604090206003015461010090046001600160a01b0390811691161415610be457610be16001836112c0565b91505b80610bee81611313565b915050610b9d565b5060008167ffffffffffffffff811115610c1257610c1261135a565b604051908082528060200260200182016040528015610c4b57816020015b610c386110e3565b815260200190600190039081610c305790505b509050600060015b848111610b7f57610c626110d4565b60008281526004602052604090206003015461010090046001600160a01b0390811691161415610d2d57600081815260046020818152604092839020835160e08101855281546001600160a01b039081168252600183015493820193909352600282015494810194909452600381015460ff81161515606086015261010090048216608085015291820154811660a08401526005909101541660c08201528351849084908110610d1457610d14611344565b6020908102919091010152610d2a6001836112c0565b91505b80610d3781611313565b915050610c53565b60606000610d4c60035490565b9050600060015b828111610da757610d626110d4565b6000828152600460205260409020600501546001600160a01b0390811691161415610d9557610d926001836112c0565b91505b80610d9f81611313565b915050610d53565b5060008167ffffffffffffffff811115610dc357610dc361135a565b604051908082528060200260200182016040528015610dfc57816020015b610de96110e3565b815260200190600190039081610de15790505b509050600060015b848111610b7f57610e136110d4565b6000828152600460205260409020600501546001600160a01b0390811691161415610ed957600081815260046020818152604092839020835160e08101855281546001600160a01b039081168252600183015493820193909352600282015494810194909452600381015460ff81161515606086015261010090048216608085015291820154811660a08401526005909101541660c08201528351849084908110610ec057610ec0611344565b6020908102919091010152610ed66001836112c0565b91505b80610ee381611313565b915050610e04565b60008211610f2757610efb6110d4565b6040516355d86de760e01b81526001600160a01b03909116600482015260248101839052604401610342565b60008381526004602052604090206003015460ff1615610f5d576040516346a770ad60e11b815260048101849052602401610342565b610f656110d4565b60008481526004602052604090206003015461010090046001600160a01b03908116911614610fc257610f966110d4565b60405163814d137960e01b81526001600160a01b03909116600482015260248101849052604401610342565b806001600160a01b03166323b872dd610fd96110d4565b6040516001600160e01b031960e084901b1681526001600160a01b03909116600482015230602482015260448101869052606401600060405180830381600087803b15801561102757600080fd5b505af115801561103b573d6000803e3d6000fd5b505050600084815260046020526040902060028101849055600301805460ff191660011790555061106a6110d4565b600093845260046020819052604090942090930180546001600160a01b0319166001600160a01b03909416939093179092555050565b6000601436108015906110bd57506001546001600160a01b031633145b156110cf575060131936013560601c90565b503390565b60006110de6110a0565b905090565b6040805160e081018252600080825260208201819052918101829052606081018290526080810182905260a0810182905260c081019190915290565b80356001600160a01b038116811461113657600080fd5b919050565b60006020828403121561114d57600080fd5b6111568261111f565b9392505050565b60006020828403121561116f57600080fd5b5035919050565b6000806040838503121561118957600080fd5b823591506111996020840161111f565b90509250929050565b6000806000606084860312156111b757600080fd5b83359250602084013591506111ce6040850161111f565b90509250925092565b602080825282518282018190526000919060409081850190868401855b8281101561125e57815180516001600160a01b0390811686528782015188870152868201518787015260608083015115159087015260808083015182169087015260a08083015182169087015260c091820151169085015260e090930192908501906001016111f4565b5091979650505050505050565b600060208083528351808285015260005b818110156112985785810183015185820160400152820161127c565b818111156112aa576000604083870101525b50601f01601f1916929092016040019392505050565b600082198211156112d3576112d361132e565b500190565b600181811c908216806112ec57607f821691505b6020821081141561130d57634e487b7160e01b600052602260045260246000fd5b50919050565b60006000198214156113275761132761132e565b5060010190565b634e487b7160e01b600052601160045260246000fd5b634e487b7160e01b600052603260045260246000fd5b634e487b7160e01b600052604160045260246000fdfea2646970667358221220229ec4a549df96c30c01edd000693b52c34e04ecee282c23d2871abfdd5e1c6b64736f6c63430008070033",
  "linkReferences": {},
  "deployedLinkReferences": {}
}